:1000000000800020BD01000021430000E542000007
:10001000E5420000E5420000E5420000E542000044
:10002000E5420000E5420000E542000021430000F7
:1000300021430000E542000021430000D5420000BA
:100040002143000021430000214300002143000020
:100050002143000021430000214300002143000010
:100060002143000021430000214300002143000000
:1000700021430000214300002143000021430000F0
:1000800021430000214300002143000021430000E0
:1000900021430000214300002143000021430000D0
:1000A0004D1C0000214300002143000021430000BB
:1000B00021430000214300002143000021430000B0
:1000C00021430000214300002143000021430000A0
:1000D0002143000021430000214300002143000090
:1000E0002143000021430000214300002143000080
:1000F00021430000096E0000214300000D4E000066
:100100002143000029730000214300002143000027
:10011000214300002143000021430000214300004F
:10012000214300002143000021430000214300003F
:10013000214300002143000021430000214300002F
:10014000214300002143000021430000214300001F
:100150009D650000B5650000CD650000E565000007
:1001600021430000F550000021430000214300001E
:1001700021430000214300002143000021430000EF
:1001800021430000214300002143000021430000DF
:1001900021430000214300002143000021430000CF
:1001A00021430000214300002143000021430000BF
:1001B0002143000021430000D9610000574B4CF25D
:1001C000205210B51A804DF628121A8000BF00BFC9
:1001D00004F0AAF8524B4FF010621A60514A9A602C
:1001E000514ADA60A3F53043203B1A6812F480725A
:1001F00004D14E490A604FF4A8521A604C4B1A7849
:10020000110703D51A7842F008021A70494B4A4C7C
:100210004A482A221A704A4A00239918A14203D256
:10022000195899500433F8E7464B474900228B424E
:1002300002D243F8042BFAE74448454900235A58B0
:100240001A500433B3F5DE7FF9D1424B424A802184
:1002500003F8011B9342FBD1404B3C4A1A60404BD0
:100260000A221A70A3F5805324225A70A0221A7011
:100270009A799207FCD59A79D406FCD4394A9379B5
:1002800003F00C03082B374BF9D103221A714022DB
:100290005A719A799006FCD5324A9179314B4906C8
:1002A000FBD5314A314911600221516020221A7078
:1002B0009A7902F00C020C2AFAD12D4B2D4A1A60C1
:1002C0002D4B2E4A1A6000225A60072243F8042C54
:1002D0002B4AC3F80C2D62B604F0D0FA134B1B68FE
:1002E000DA0705D5274804F03BFA274B274A1A605E
:1002F000274B1B785B0609D5234C244A236893427D
:1003000004D1204804F02CFA0023236008F010FCEC
:1003100004F010F806F040FAFEE700BF0E2005409A
:1003200030800440823F04000100002B14D00340C1
:1003300002D0074000E007402CA2FF1F1CE600008F
:100340008098FF1F30A2FF1F9CAEFF1F0092FF1F6F
:100350000000000000E400E05FE400E008ED00E0E1
:100360000050064000400640448004400000030165
:1003700004800440C010050014E000E0FF76010096
:1003800000002020066223001CE00340A5C3945A0D
:1003900000F00740FFFFFFFFFFFFFFFFFFFFFFFF32
:1003A000FFFFFFFFFFFFFFFFFFFFFFFFFFFFFFFF5D
:1003B000FFFFFFFFFFFFFFFFFFFFFFFFFFFFFFFF4D
:1003C000FFFFFFFFFFFFFFFFFFFFFFFFFFFFFFFF3D
:1003D000FFFFFFFFFFFFFFFFFFFFFFFFFFFFFFFF2D
:1003E000FFFFFFFFFFFFFFFFFFFFFFFFFFFFFFFF1D
:1003F000FFFFFFFFFFFFFFFFFFFFFFFFFFFFFFFF0D
:10040000FFFFFFFFFFFFFFFFFFFFFFFFFEFFFFFFFD
:1004100010B5054C237833B9044B13B10448AFF33E
:1004200000800123237010BD30A2FF1F00000000D8
:1004300014E6000008B5064B1BB106480649AFF3A9
:1004400000800648036813B1054B03B1984708BD07
:100450000000000014E6000034A2FF1F2CA2FF1FC2
:1004600000000000704700BF10B5154803F006FDFE
:10047000144801F03FFD144CD4F8E00003689B6978
:1004800047F6122198470A2384F84B30002384F85A
:100490004A3084F849306365236584F8DC3084F899
:1004A000593084F8583084F85A3084F85B3003238C
:1004B00084F8483005482146054A01F0E1FF10BDA7
:1004C00038A3FF1F50A7FF1F4CA2FF1F08AAFF1F42
:1004D0000000C84210B50024204605F095FA002817
:1004E000FAD1034801F02CFD024803F047FD10BD8E
:1004F00050A7FF1F38A3FF1F08B51148114BC0F8C4
:10050000E0300023036043608360C36003614361A4
:100510008361C361036243628362C36203634363B3
:100520008363C363036443640749084A08F0F0FA2D
:10053000074B1A68074B1A60074803F09DFC08BD7B
:100540004CA2FF1FACACFF1F650400008098FF1F8A
:10055000D0AAFF1F30A3FF1F38A3FF1F0020704742
:100560000020704770B50D461646242908BFC2808A
:10057000114C20460A2101F085FC23681B682046A7
:10058000C5F30721984723681B682046E9B29847BE
:1005900023681B682046C6F30721984723681B6819
:1005A0002046F1B29847204601F072FCD0F10100DC
:1005B00038BF002070BD00BF1CA7FF1F10B5044648
:1005C00079B920215522FFF7CDFF034618B3E28801
:1005D00042F004022046242192B2FFF7C3FF0346F3
:1005E00019E0012916D12A2140F27312FFF7BAFF50
:1005F000034680B1204620218822FFF7B3FF03463F
:1006000048B1E28822F0040220462421FFF7AAFF25
:10061000034600E00023184610BD00BF38B504466D
:1006200001250571334801F0EFFA052004F010F9B7
:100630002046302144F26002FFF794FF2046262135
:100640006C22FFF78FFF204628214FF4F972FFF745
:1006500089FF20462C2140F62272FFF783FF2046B7
:100660003C2144F24642FFF77DFF2046242140F220
:100670003712FFF777FF2046302144F2FF02FFF7E1
:1006800071FF204602217322FFF76CFF4FF4C87000
:1006900004F0DEF820462E2141F61D52FFF762FFDE
:1006A000204604210A46FFF75DFF204606214FF44D
:1006B0009872FFF757FF20460A211022FFF752FFDA
:1006C00020460E210022FFF74DFF2046102143F661
:1006D0003C42FFF747FF2046222147F67F72FFF793
:1006E00041FF204624213622FFF73CFF2572284691
:1006F00038BD00BF1CA7FF1F38B504460D4679B9A9
:1007000001230371222147F67F72FFF72BFFE28856
:1007100042F010022046242192B2FFF723FF38BD99
:10072000802994BFC1F18005002503793BB10023E6
:100730000371C28822F010022421FFF713FF204624
:10074000222145EA0522FFF70DFF38BD10B504460A
:100750000846064907F036FD054907F02BFC07F06F
:10076000F7FE01462046FFF7C7FF10BD000001431A
:10077000EE7CFF3E10B5044605F0CAFD204610BDD4
:1007800008B503480349044A08F0C2F908BD00BF90
:1007900060A3FF1F750700008098FF1F08B503487E
:1007A0000349044A08F0B4F908BD00BF68A3FF1F5D
:1007B000750700008098FF1F2DE9F84381468046A9
:1007C00000263746F7B94846314605F0B3FC0746E0
:1007D000002853D0D8F81810B1F5803F4ED0031D33
:1007E00000F582741A6831FB02F031FB12F200F35B
:1007F0000F0002F30F02C0EA024243F8042B9C42AE
:10080000F0D83BE04846314605F088FC8446A8B362
:100810003B1D051DD8F8184007F5827EB4F5803FD2
:1008200016D107F10C040C3054F8082C50F8081CB1
:1008300092FA11F244F8082C5A6850F8041C92FA03
:1008400011F25A600833083408309E45ECD812E0A3
:1008500055F8042B34FB02F034FB12F200F30F00C6
:1008600002F30F02C0EA0242196892FA11F143F84A
:10087000041B9E45ECD8604605F01AFC013608F1D1
:100880000408042E9ED13FB148463946002205F0A7
:100890002FFC384605F00CFCBDE8F88308B503488A
:1008A0000349044A08F034F908BD00BF70A3FF1FD4
:1008B000750700008098FF1F70B5344B1A681268E6
:1008C0001979334B1970334B9A420CD2324B1B7847
:1008D0006BB14FF08042314B1A60314D05F5807499
:1008E00005F5007508E02E4C04F5807504E02C4DEC
:1008F00005F5807405F500752A4B1868D8B12A4BA8
:10090000198800EB4103043333F8022B24F8042B3D
:10091000A542F9D840317F2902D8234B19800FE036
:100920000026214B1E8005F0C3FB204B1A681D4991
:100930000A601E6004E0002324F8043BA542FBD8B3
:10094000FE3C1B4B1868D8B11A4B198800EB4103C9
:10095000043333F8022B24F8042BA542F9D8403194
:100960007F2902D8134B198070BD0024114B1C80C5
:1009700005F09EFB104B1A680D490A601C6070BDA3
:10098000002324F8043BA542FBD870BD7CA3FF1FC5
:100990001F8000400083FF1F94A3FF1F08E200E0B8
:1009A0000082FF1F8CA3FF1F78A3FF1F98A3FF1FC8
:1009B00084A3FF1F88A3FF1F90A3FF1F10B5044649
:1009C000002105F0ABFB0146E0B172B61E4B1B687F
:1009D00033B91D4B186000221C4B1A8062B611E01F
:1009E0001B4A12681AB91A4B186062B60AE0164818
:1009F0000260174A11600021144A118062B618463D
:100A000005F056FB2046012105F088FB0246D0B1D7
:100A100072B6104B186828B91A6000220E4B1A8063
:100A200062B610BD0D4B1B681BB90C4B1A6062B649
:100A300010BD08490B60094B1A600022064B1A8052
:100A400062B605F035FB10BD8CA3FF1F78A3FF1F16
:100A500098A3FF1F84A3FF1F88A3FF1F90A3FF1F5E
:100A600030B4254B1A6842F400421A60234A1168D8
:100A700041F0020111601A6842F002021A60204B34
:100A80001B68002B36DB1F4B1B68002B32DB4FF043
:100A900086421D4B1A6041F2100204331A60002492
:100AA000A43B1C6001205C3B1860184A04331A60A8
:100AB0004FF4803104331960154A04331A60154B22
:100AC000154D2B60CC352C60144C2060144C15480F
:100AD00004600430016014490A60144A13604FF442
:100AE000C06302F5DF3202F5BA721360043213609C
:100AF0000C32136030BC70473C800440408004409E
:100B000000F0024080F0024000F1024003000007C4
:100B10001B0F0100000F0F0F14F0024084F0024081
:100B20000300004788F0024090F0024094F0024039
:100B300038B5314D2846012105F08CFB00242F4BA0
:100B40001C602F4B1C60FFF78BFF4FF4C0622D4BD6
:100B50001A602B681A682C4A1A602B6802221A71D4
:100B60005C7101219971D9711A725C729C72DC728C
:100B70001C736FF001025A734FF0FF329A73DA73ED
:100B80001A69224A1A611C755C75DA8A4FF4807200
:100B9000DA821C765C769C76DC76D98BDA839A8B4B
:100BA00006229A832B7903F1804303F504331C70EA
:100BB0008F221A7005F0FAFA154B18702A79154B26
:100BC0001A70154A136843F0124343F0010313608F
:100BD0002A7902F110011148114B43F821005311F9
:100BE0009B0003F1604303F5614302F01F02012102
:100BF00001FA02F21A6038BD7CA3FF1F8CA3FF1F0D
:100C000084A3FF1F04B004400082FF1F20F00240B5
:100C100094A3FF1F1B80004000F00240B9080000B1
:100C20000092FF1F08B503480349044A07F070FF0C
:100C300008BD00BF7CA3FF1F750700008098FF1F41
:100C400008B503480349044A07F062FF08BD00BF26
:100C50009CA3FF1F750700008098FF1F08B503487D
:100C60000349044A07F054FF08BD00BFA4A3FF1FB7
:100C7000750700008098FF1F2DE9F047064690F8A1
:100C8000263013F0FF0F00F06A8105F0B5F9074632
:100C9000002800F06481011DB369B48C96F8262009
:100CA000D2B2032A00F0948004D8012A0BD0022A81
:100CB00037D030E1822A6FD0832A00F0F580812A74
:100CC00040F029811FE00A4603F18005A54853F84A
:100CD000041B5FFA81FE30F81EE0A2F800E0C1F3C9
:100CE000072E30F81EE0A2F802E0C1F3074E30F8FC
:100CF0001EE0A2F804E0090E30F81110D18008328D
:100D0000AB42E4D10FE100229D588D5288182D0C82
:100D100045800432B2F5807FF6D103F580758022DC
:100D20000AE10A4603F14005A1468E4853F8041B28
:100D3000CCB230F814C0C1F3072430F81480C1F3EA
:100D4000074430F814E0090E30F811400FFA8CF126
:100D500001FA89F94FEA6909A2F80090A2F802C0E5
:100D60000FFA88FC614449109180A2F806800FFABE
:100D70008EF18C444FEA6C0CA2F808C0A2F80AE08D
:100D800001FA84F149109181D4811032AB4200F014
:100D9000CC801FFA84F9C9E70A4603F18005A6460C
:100DA00053F8044BA0B2240C01B201FA8EFE4FEAB4
:100DB0006E0EA2F800E0508001FA84F14910918093
:100DC000D4800832AB4200F0B2801FFA84FEE7E71D
:100DD0000A4603F120052046DFF888E153F8041B9A
:100DE000CCB23EF814A0C1F307243EF81490C1F32E
:100DF00007443EF81480090E3EF8114000B20FFA85
:100E00008AF100EB400C8C444FEAAC0CA2F800C015
:100E100000EB010C4FEA6C0CA2F802C001EB410C94
:100E2000604480109080A2F806A00FFA89F08444F4
:100E30004FEAAC0CA2F808C001EB000C4FEA6C0CB6
:100E4000A2F80AC000EB400C614489109181A2F81D
:100E50000E900FFA88F18C444FEAAC0CA2F810C047
:100E600000EB010C4FEA6C0CA2F812C001EB410C34
:100E7000604480109082A2F8168020B284444FEA29
:100E8000AC0CA2F818C001EB000C4FEA6C0CA2F8F5
:100E90001AC000EB4000014489109183D4832032B2
:100EA000AB4246D0A0B299E70A4603F1400520467E
:100EB00053F8044B1FFA84FC240C00B20FFA8CF197
:100EC00000EB400E8E444FEAAE0EA2F800E000EBBD
:100ED000010E4FEA6E0EA2F802E001EB410E7044E3
:100EE00080109080A2F806C020B286444FEAAE0E71
:100EF000A2F808E001EB000E4FEA6E0EA2F80AE03D
:100F000000EB4000014489109181D4811032AB4242
:100F100011D0A0B2CCE7384605F0CAF8002386F815
:100F20002630BDE8F087802206E0402204E040221F
:100F300002E0202200E02022B484B561336A9A42A4
:100F400039BFC2EB03033362002386F826303046F4
:100F50003946002205F0CCF8384605F0A9F8BDE87E
:100F6000F08700BF08C70000002380F82630838484
:100F70000A1D0B688261C26123F07F4202621B0E70
:100F800080F82630704700BF084B00225A719A71D2
:100F90009A721A730221196183F8302083F83C2079
:100FA0000349996383F83E20704700BF34A4FF1FB4
:100FB00060C90000084B1A6842F480621A604FF062
:100FC0000042DA62FF225A631A46D36A002BFCDA27
:100FD000014B986BC0B2704700C0024010B5044688
:100FE000164A174B1A6010F0010F02D0FFF7E2FF0C
:100FF000013C052C04D9032100231148114A02E0C9
:101000006108F9D104E04263023C01338B42FADB10
:101010004CB10B4A0B48D36A13F0F00FFBD050636E
:10102000936B023CF7D1002907DD054AD36A13F020
:10103000F00FFBD0936B0139F8D110BD00041F8075
:1010400000C00240FFFF0090064B1A6842F4806225
:101050001A604FF00042DA6258631A46D36A002BD6
:10106000FCDA704700C0024008B50079012103F0A6
:1010700087FB114B1B78F3B100220F4B1A700F4BFB
:101080001B78C3B113F0010F03D00D4B1A680D4B41
:101090001A600A4B1B7813F0020F03D0084B5A68F2
:1010A000094B1A60054B1B7813F0040F03D0044B57
:1010B0009A68064B1A6008BD98A4FF1FC4A6FF1FBC
:1010C000B8A6FF1F00E100E004E100E008E100E055
:1010D00010B5244B1B78002B3ED10122214B1A70F6
:1010E000214B1A68214B1B78002B28D072B61F4B5E
:1010F0001B7813F0010F07D01D4B1C681D490968B0
:1011000021401D4C21601960184B1B7813F0020F11
:1011100007D01A4B1C68174949682140164C61607A
:101120001960124B1B7813F0040F07D0144B1C6886
:10113000104989682140104CA160196062B6114BBA
:10114000DB68934208D00F4B0F491960DA6042F018
:1011500080421A610D4A1A600079002103F010FBE9
:1011600010BD00BF98A4FF1F94A4FF1FC4A6FF1FBB
:1011700080E100E0ACA6FF1FB8A6FF1F84E100E0FD
:1011800088E100E000C0024001401F0000001F8015
:1011900038B5044683797BB1008940F20123984237
:1011A00005D840F20225281AFFF718FF25812046AE
:1011B000FFF75AFF0023A37138BD00BF70B50E467C
:1011C000084B1C681D46A4B2FFF7F4FEFF2805D0AB
:1011D0002B689BB21B1BB342F6DB01E0012070BD04
:1011E000002070BDD0AAFF1FF8B505460F46164671
:1011F000FFF7CEFF2846FFF76BFF28464FF49671A6
:10120000FFF7DCFF47F04000FFF71EFF182426FA27
:1012100004F0C0B2FFF718FF083C14F1080FF6D134
:1012200027B1082F0CBF8720FF2000E09520FFF793
:101230000BFF0024FFF7BEFEE87210F0800F03D012
:101240000134B4F5807FF5D1F8BD00BF70B5044618
:101250000E4B1D681E46ADB208E033689BB25B1BA7
:10126000B3F5967F02DD0F23637108E0FFF7A2FE5E
:10127000E072FF28F1D0FE2806D00D2363712046CE
:10128000FFF7F2FE002070BD012070BDD0AAFF1F45
:10129000F8B505460C4617461E46002B00F089801F
:1012A0001344B3F5007F7FDC83792BB103688B4255
:1012B00002D10389934216D92C602B7B032B18BFD4
:1012C0006402284611212246FFF78EFF10B1032346
:1012D0006B7169E02846FFF7B9FF002864D000234E
:1012E0002B810123AB713846FFF778FE3046334A35
:1012F000334B1A6016F0010F07D0069A541CFFF703
:1013000059FE069B1870701E0694052804D9032701
:1013100000232B492B4A02E04708F9D103E04A6336
:1013200001339F42FBDCA0EB4700069A1044824247
:1013300019D214462249DFF88CC0CA6A12F0F00FA5
:10134000FBD0C1F834C08B6BC3F3072222706370EB
:101350000234A042F1D8069AD343034423F0010398
:1013600002331A44069200EB4700069B98420DD9BF
:101370001C461349CA6A12F0F00FFBD08B6BC3F303
:101380000722227063700234A042F3D82B893344C1
:101390009BB22B81AA7A12B1B3F5007F0BD32846FA
:1013A000FFF7F6FE0120F8BD2846FFF75DFE00209E
:1013B000F8BD0120F8BD0120F8BD00BF00041F806A
:1013C00000C00240FFFF009000B583B000920022F1
:1013D0004FF40073FFF75CFF03B05DF804FB00BF40
:1013E000F8B50646214B186840F4806018604FF04D
:1013F0000040D8625963114602F500770446DA6A64
:10140000002A0FDBFBE7DA6A002A14DBFBE7D36A6A
:10141000002B1CDBFBE7112373713046FFF724FE22
:101420000020F8BD08460A781D6845F480651D60F7
:10143000DC625A63E7E742781D6845F480651D6009
:10144000DC625A630231B942D9D1084ADFE7FF2092
:10145000FFF7FAFDFF20FFF7F7FDFFF7ABFDF07296
:1014600000F01F000528D6D10120F8BD00C00240C1
:1014700038B5044615460B4611B9122343712BE0CB
:10148000027B032A18BF4B0218211A46FFF7ACFE55
:1014900010B1042363711FE02046FE212A46FFF7A6
:1014A0009FFFC8B120464FF41671FFF787FE10B9B1
:1014B0001523637110E020460D210022FFF794FEF2
:1014C00010B9FFF777FD10B11423637104E02046D3
:1014D000FFF7CAFD012038BD2046FFF7C5FD0020FB
:1014E00038BD00BF014A024B1A6070470110013835
:1014F00094A4FF1F10B50446006A012104F10802FC
:1015000000F05CFA034650B1E3693BB9A368E361BC
:10151000637963F07F036371012300E001231846C0
:1015200010BD00BF10B50446006900F0A5F920B158
:10153000207D034B03EB401010BD002010BD00BF09
:10154000A8A4FF1FF8B504460F4683797BB38269D0
:101550008A422BD3022B02D1E160012327E021B97B
:1015600000238360C360012321E0C368026A157C05
:1015700009355A1EEA40013921FA05F5AA4200D878
:1015800013B9E369A3600AE0AD1A08E0206AA16814
:10159000324600F095F9013D034610B907E004F129
:1015A0000806002DF2D1E760012300E00023184671
:1015B000F8BD00BF38B50446807918B394F90530FA
:1015C000002B1BDA20460121FFF7ACFF0546C0B116
:1015D000A379012B9CBFA369C361A38B4383E38BD6
:1015E0008382094B1B682BB1183005F1160198470F
:1015F0002B8B6B82637903F07F03637100F010F92A
:1016000038BD002038BD00BF9CA4FF1F2DE9F04F5E
:1016100085B00446884601928379012B40F0BE8054
:10162000437913F0020F00F0B98013F0040F08D0D3
:101630008169C3688B4204D0FFF784FF002800F063
:10164000AD80019A002A00F08C801646DFF8B0A128
:10165000DFF8B0B1206AE76890F8049009F1FF392B
:1016600009EA5729C7F3080719F0FF0929D1002F04
:1016700040F0AA80A16851B9E36933B92046FFF769
:1016800039FF002840F08E8088E0A3608AE003AA3A
:1016900000F016F9002800F0A880039B226A92F857
:1016A00020004FF6F871524A102808BF0A469342AC
:1016B00005D32046FFF71EFF002873D16EE0A3601C
:1016C00070E0C7F50075ADB2AE4238BF3546A368CD
:1016D000023B027C9340426913449944B5F5007F74
:1016E00012D1DBF800304B4504BF4FF0FF33CBF88D
:1016F0000030404B186849464246FFF7B9FE0028C3
:101700004CD008F5007824E07FB9E268A3699A42DA
:101710000BD300F085F8002840D0CBF80090364A73
:10172000137843F00103137005E04846012100F0EF
:10173000A3F8002832D057447819874209D03B4695
:10174000424612F8011B03F8011B8342F9D1C71B63
:10175000B844761BB6B2E3681D44E560002E7FF402
:1017600079AFE368A269934205D9A361637963F015
:101770007F03637108E0214B1B682BB1019B1BB1F8
:10178000637963F07F036371637913F0080F03D00B
:101790002046FFF70FFF08B1019826E001232371CF
:1017A000002022E0B6F5007F34BF35464FF40075C7
:1017B000236AA268023A197C02FA01F95B6999442A
:1017C000B5F5007FA1D18CE7C7F50075ADB2AE428B
:1017D00038BF3546A368023B027C03FA02F943692D
:1017E0009944B5F5007FA0D17BE705B0BDE8F08F47
:1017F000F8FFFF0FA4A4FF1FA8A6FF1F9CA4FF1FB4
:10180000A8A4FF1F8498FF1F00B583B002AB03F8A4
:10181000011D19460122FFF7F9FE03B05DF804FB34
:1018200008B5104B1B78D3B10F4B18680F4B1968D4
:101830000F4AFFF71DFE034690B10E4B196849B1E0
:10184000094B18680A4AFFF713FE034640B100220D
:10185000084B1A600022034B1A70012300E0012399
:10186000184608BDA8A6FF1FA4A4FF1F8498FF1F49
:10187000A8A4FF1FA0A4FF1F38B504460D460C4BBB
:101880001B6883420DD0FFF7CBFF034670B1094BB5
:1018900018682146084AFFF797FD034630B1044B0C
:1018A0001C60064B1A7815431D700123184638BD7D
:1018B0008498FF1FA4A4FF1FA8A4FF1FA8A6FF1FB2
:1018C00070B504460D461646C36801338B4225D3D6
:1018D000C36990F82020102A0CBF080AC8091844D0
:1018E000104B1B68984204D00021FFF7C5FF034648
:1018F000A8B194F82030102B06D1EDB20A4B33F882
:101900001530336001230AE005F07F05064B53F8DC
:10191000253023F070433360012300E00023184694
:1019200070BD00BF8498FF1FA8A4FF1FF8B5044630
:101930000D461746012931D9C368013399422FD882
:10194000C36990F82020102A0CBF0E0ACE091E444D
:10195000164B1B689E4205D030460021FFF78CFFD6
:10196000034600B394F82030102B04D1EDB2104B95
:1019700023F8157004E005F07F050D4B43F8257042
:101980000C4B1A7842F001021A70237E012B09D900
:10199000A3681E44084B1E60012304E0002302E0FC
:1019A000002300E001231846F8BD00BF8498FF1F04
:1019B000A8A4FF1FA8A6FF1FA0A4FF1F2DE9F04F9A
:1019C00085B006468A46009217681FB1013700238A
:1019D000019305E00768012914BF00230123019347
:1019E000F36803F10108DBB13C4600254FF0020922
:1019F000CB46A0453CBF4C465F463046214603AA35
:101A0000FFF75EFF60B1039B0BB1671C03E0631C33
:101A1000DB1B534506D001350134F368AB42E8D8EF
:101A200000232AE0304621466FF07042FFF77EFF28
:101A3000034648B921E0651E304629462246FFF795
:101A400075FF034618B918E0BC42F4D803E0BD4264
:101A500001D92C46EFE7009B196829B130463A4678
:101A6000FFF764FF034640B1009B1F60019B1BB161
:101A700001373760012300E00123184605B0BDE8B7
:101A8000F08F00BF044BD878C0B2044B1B6898425B
:101A90001CBF024B18607047006006408898FF1F0B
:101AA0000B4B1B7813B90B4B1B7873B10A4B1B788C
:101AB000202B03D90123037100207047581C064ACC
:101AC0001070064AD154012070470020704700BFB3
:101AD0002EA7FF1FF0A6FF1F2FA7FF1FCCA6FF1FDB
:101AE000704700BF024B1878024B1B78C01A704732
:101AF0002DA7FF1F2CA7FF1F074B1B78074A127843
:101B00009A4205D9591C044A1170054AD05C7047A5
:101B10004FF0FF30704700BF2CA7FF1F2DA7FF1FFE
:101B2000F4A6FF1F054B1B78054A12789A4286BF20
:101B3000044AD05C4FF0FF30704700BF2CA7FF1F56
:101B40002DA7FF1FF4A6FF1F08B5104BDB7813F07D
:101B5000200F0CD1122002F0EBFD0D4B1B689BB146
:101B600000210C4A11700C4A1078984708BD0B4AA6
:101B700013780133DBB21370012B02D8084B1B78AA
:101B800013B9122002F0D4FD08BD00BF006006406A
:101B9000C8A6FF1F2CA7FF1F2DA7FF1F18A7FF1FF9
:101BA000F0A6FF1F38B514460D4B1B7813B90D4B2B
:101BB0001B7893B10C4B1D78C5F12103A34202D2CF
:101BC000012202711C4609482844224602F024FAE8
:101BD0002544054B1D70204638BD002038BD00BF90
:101BE0002EA7FF1FF0A6FF1F2FA7FF1FCCA6FF1FCA
:101BF000002202714FF47A7181600273014A02601F
:101C0000704700BF70C9000000220C4B1A700C4BCB
:101C1000196841F0400119600A4B9A704FF419722B
:101C200009490A6004390A6027225A7004229A710D
:101C300020225A7180229A70704700BFF0A6FF1FC1
:101C400034800440006006400CA0044008B53D4BC1
:101C5000DB78DBB213F0100F06D01021394AD170B7
:101C600013F0400F03D108BD13F0400F2CD013F038
:101C7000040F1BD00023344A1370344A1370344BC2
:101C80001B681BB19847314B1B782BB901222F4B96
:101C90001A7000222F4B1A702A4BD0229A702D4AAC
:101CA00012781A7101222C4B1A7009E00122264B7E
:101CB0001A700022294B1A70224BC0229A701B798D
:101CC0000222204BDA7008BD1E4A927812F0100FE3
:101CD0001CD013F0010F14D11F4B1B781B4A127834
:101CE0009A4207D9591C1C4A11701A4AD25C154BEA
:101CF0001A7102E00022134B1A71D022114B9A7014
:101D00001BE0104BC0229A701B7916E00022144B86
:101D10001A7012201349032202F0C2FC094B1B79EE
:101D2000DAB20E4B1B781F2B07D80749097821B16F
:101D3000581C0A4908700C49CA540222014BDA7037
:101D400008BD00BF00600640C5A6FF1F2FA7FF1FEC
:101D500014A7FF1FCCA6FF1F30A7FF1F2DA7FF1F33
:101D600018A7FF1F491B0000F4A6FF1F4900044BE2
:101D700019700123034A1370034A1370704700BFA0
:101D8000CCA6FF1F2EA7FF1F2FA7FF1F2DE9F04195
:101D90008846364B1222DA709B7813F0200F03D05E
:101DA000B422324B9A701AE0314B1D681C460BE08E
:101DB00023685B1B0F2B07D92C4B00229A708022C3
:101DC0009A700420BDE8F081FFF75CFE10F0200F50
:101DD000EED10022274B1A70B022244B9A70FFF7E5
:101DE00051FE10F0200FFAD0234B1B787BB3002458
:101DF000224E1E4D204F335D2B71FFF743FE10F036
:101E0000020F02D110F0200FF7D10223EB70FFF781
:101E100039FE10F0100F04D08022144B9A70042069
:101E200018E010F0200F04D18022104B9A7004208B
:101E300010E010F0010F04D0002C0CBF0220032092
:101E40000BE00134E4B23B78A342D4D801E0002097
:101E500000E00020B8F1000F02D08022034B9A70FE
:101E60000022074B1A70BDE8F08100BF00600640F9
:101E7000D0AAFF1FF0A6FF1F2FA7FF1FCCA6FF1F92
:101E80002EA7FF1F08B5C9B2FFF770FF08BD00BF3E
:101E900008B50121FFF77AFF08BD00BF08B5024869
:101EA000FFF7A6FE08BD00BF1CA7FF1F0F4B036076
:101EB0004172026100230372C36039B1194602699D
:101EC00042F823100133427A9A42F8DC084B1A6830
:101ED0000AB9186004E053690BB11A46FBE7506178
:101EE000002343618380C380704700BF90C9000016
:101EF00080ACFF1F10B50F480C2104F04DF80E4CBC
:101F00002046FEF78BFB204620215522FEF72AFBB8
:101F100038B12046E28842F00402242192B2FEF752
:101F200021FB05486121FEF7E7FB4FF40042034B1C
:101F30009A6110BD0084FF1F34A7FF1F74A7FF1F05
:101F4000704700BF08B502480249FFF70DF808BD09
:101F5000CCA7FF1F98C90000F8B5214F38460021D3
:101F60000A46FFF7A3FF1F4B3B60002587F826506A
:101F70001D4C2046042104F12802FFF797FF1B4B5C
:101F800023604FF48033A361E36123626362184EE0
:101F90003046022106F11802FFF788FF154B336027
:101FA0003046FEF7C5FD144807604460057245726F
:101FB000C56004F0E3F8114804604660057245729C
:101FC000C56004F0DBF80E4804604660057201232A
:101FD0004372C56004F0D2F80A4A0B4B1A60F8BD90
:101FE000CCA7FF1F50C9000074A7FF1F30C9000015
:101FF00054A7FF1F40C9000040A7FF1FACA7FF1F49
:10200000BCA7FF1F10C9000034A7FF1F10B5044C68
:10201000204601F08DFD204601F036FE10BD00BFC8
:1020200080A9FF1F08B5034801F016FD024801F022
:102030008DFD08BD28A8FF1F80A9FF1FF0B585B042
:10204000294C82260096A02301931E2302934FF66B
:10205000FF75039520465F213246E12300F0F8FD2D
:10206000B4270097019520465F213246002300F0F7
:1020700041FC009701952046E121324640F23F1392
:1020800000F038FC412600960195204693212E222F
:10209000002300F02FFC009601952046AD212E2252
:1020A00040F23F1300F026FC2046012101F028F801
:1020B0002046294600F050FF2046F021502200F033
:1020C00061FC23685B682046084904229847204643
:1020D0000F21502200F056FC23685B68204604491B
:1020E0000422984705B0F0BD14AAFF1F9CDF000032
:1020F000A4DF000008B5064801F082FC054801F0A5
:102100007FFC054801F0BEFB044801F0BBFB08BDA5
:10211000F4A7FF1F18A9FF1FE4A8FF1F7CA8FF1F3B
:1021200008B5054801F0AEFB044801F0ABFB0448DC
:1021300001F0A8FB08BD00BF4CA9FF1FB4A9FF1FF9
:10214000B0A8FF1FF8B5064600230F460F4C1D46EA
:102150000220994207BF54F82720106254F8232028
:1021600015620133032BF4D111B1022907D009E024
:102170003046FFF763FF3046FFF754FF02E030467A
:10218000FFF7B8FF3046FFF7CBFFF8BDA498FF1F5D
:10219000F8B5124801F0C2FAB8B90A250F4C104F31
:1021A00014260DE023685B6820463946324698477E
:1021B000C82002F04DFB204600F014FB013D0BD07F
:1021C000204601F0ABFA0028ECD0044C204601F088
:1021D00039FB204601F004FBF8BD00BF14AAFF1F25
:1021E000CCDF000030B583B0FFF7D2FF164C20469D
:1021F000002100F021FEF0230093204600210A4632
:102200004FF4A07300F0DCFD104C206801F0C2FD1B
:10221000606801F0BFFD0E4D2C1F0C3554F8040F03
:1022200001F0B8FDAC42F9D10A4C206801F0B2FDD2
:10223000606801F0AFFDA06801F0ACFD0222064B22
:102240001A6203B030BD00BF14AAFF1F8C98FF1F95
:102250009498FF1FA498FF1F80A9FF1F70B584B03A
:1022600064250095022301932F48294682222B469C
:1022700001F0D6FB2D4E00950024019402943046C7
:1022800029461E222B4601F06FFD4FF49663F36141
:102290001E2500950194264B0293264805210A46E7
:1022A0004FF4967301F060FD00950194224B029368
:1022B0002248052123224FF4967301F055FD009525
:1022C00001941F4B02931F48214691228C2301F059
:1022D0004BFD009501941C4B02931C48B3219122A5
:1022E0008C2301F041FD282500950194184B0293A1
:1022F00018482146C7226A2301F036FD0095019453
:10230000154B029315486A21C7220B4601F02CFD9C
:1023100000950194124B02931248D421C7226B23DB
:1023200001F022FD04B070BD28A8FF1F80A9FF1F87
:10233000E4DF0000F4A7FF1FF4DF000018A9FF1F6F
:1023400004E000007CA8FF1F0CE00000E4A8FF1FD1
:1023500014E000004CA9FF1F1CE00000B4A9FF1FFF
:1023600024E00000B0A8FF1F08B50E4B1B68D3F88F
:10237000E00003681B68F82198474FF60F0003F050
:10238000D7FA03F029FB084A13780133DBB2137044
:10239000182B05D10022044B1A700448FFF7D2FD18
:1023A00008BD00BF04AAFF1F00AAFF1F50A7FF1F00
:1023B00010B5044604F0E6F9204610BDFFFFFFFF0C
:1023C000F8B5064614461D46104619460022264B0F
:1023D00005F068FD00283BD0204629461EA3D3E91E
:1023E000002305F041FD002832D000221F4B5A7314
:1023F0001F4B1B7833B11D4B1B7B03F1604303F56F
:1024000064431A7016A1D1E9000122462B4605F05B
:10241000E3FB05F079FD0746002106F07BF8A8B93B
:102420003846144906F08AF880B93846124905F052
:10243000C9FE4FF07C5105F0BDFD06F089F802465B
:10244000272803D909480D4904F084F9C6E9004555
:10245000F8BD00BFAFF300800000000000E0754051
:1024600000000000D012434100002440ECA9FF1FEF
:10247000D0ACFF1FABAAAA4C000040426923000069
:1024800010B50446054B1960104605F027FA0246C0
:102490000B462046FFF794FF10BD00BF04AAFF1FA4
:1024A00008B5054800230370802343730349044A99
:1024B00006F02EFB08BD00BFECA9FF1FB1230000F2
:1024C0008098FF1F38B50C46FF2002F041FBFE202C
:1024D00002F03EFB0D48026812680021904720463A
:1024E00002F036FB0A4B1A680A4B1A60084D1C466C
:1024F00005E002F001FC10B102F00EFC04E02A68D5
:102500002368D31AF92BF4D9012038BDBCACFF1FC6
:10251000D0AAFF1F24AAFF1F70B50E461546012A38
:1025200004D103681B680978984770BD002002F049
:102530000FFB182002F00CFB45B1344614F8010BD8
:1025400002F006FBA31BDBB29D42F7D827480368C5
:102550001B6800219847264B1A68264B1A60244EA8
:102560001C4605E002F0C8FB10B102F0D5FB04E008
:1025700031682368CB1AF92BF4D91D4B1A681D4B0F
:102580001A601B4E1C4609E002F0B6FB012805DD6F
:1025900002F0C2FB02F0C0FB284670BD3168236820
:1025A000CB1AF92BF0D902F0A7FB98B1124C236893
:1025B0005B68204611491722984702F0ADFB01469F
:1025C00020461022002304F013F9204604F000F9FD
:1025D000284670BD084C23685B68204608491322D2
:1025E0009847204604F0F4F8284670BDBCACFF1FA5
:1025F000D0AAFF1F24AAFF1FE4ACFF1F40E0000089
:1026000058E0000000220271014A0260704700BFDA
:1026100038E0000038B50C46002002F099FA1E2080
:1026200002F096FA204602F093FA284B1A68284BDB
:102630001A60264D1C4605E002F05EFB10B102F068
:102640006BFB04E02A682368D31AF92BF4D91F4BDB
:102650001A681F4B1A601D4D1C460DE002F04CFB22
:10266000012809DD02F058FB044602F055FB240264
:10267000A4B2204380B238BD2A682368D31AF92B4C
:10268000ECD902F039FBA0B1124C23685B682046FC
:1026900011491722984702F03FFB014620461022BD
:1026A000002304F0A5F8204604F092F84FF6FF70DE
:1026B00038BD084C23685B682046084913229847B8
:1026C000204604F085F84FF6FF7038BDD0AAFF1FF2
:1026D00024AAFF1FE4ACFF1F40E0000058E0000008
:1026E00038B50C46002002F033FA1D2002F030FA13
:1026F000204602F02DFA284B1A68284B1A60264D06
:102700001C4605E002F0F8FA10B102F005FB04E007
:102710002A682368D31AF92BF4D91F4B1A681F4B68
:102720001A601D4D1C460DE002F0E6FA012809DD95
:1027300002F0F2FA044602F0EFFA2402A4B22043B7
:1027400080B238BD2A682368D31AF92BECD902F07D
:10275000D3FAA0B1124C23685B68204611491722B6
:10276000984702F0D9FA014620461022002304F0CF
:102770003FF8204604F02CF84FF6FF7038BD084CA7
:1027800023685B682046084913229847204604F0D6
:102790001FF84FF6FF7038BDD0AAFF1F24AAFF1FF5
:1027A000E4ACFF1F40E0000058E00000F8B506462A
:1027B0000F464D1C0978FFF72DFF0446797841B18B
:1027C0003046FFF727FF204484B215F8011F002987
:1027D000F6D12046F8BD00BF08B50978FFF780FFA5
:1027E00008BD00BF38B5FF2002F0B2F9CD2002F0DD
:1027F000AFF9094B1A68094B1A60074D1C4605E0F2
:1028000002F07AFA10B102F087FA38BD2A6823681C
:10281000D31AF92BF4D938BDD0AAFF1F24AAFF1F61
:1028200038B50C46FF2002F093F9A62002F090F98B
:10283000200A02F08DF9E0B202F08AF9284B1A68FA
:10284000284B1A60264D1C4605E002F055FA10B1DF
:1028500002F062FA04E02A682368D31AF92BF4D94B
:102860001F4B1A681F4B1A601D4D1C460DE002F0ED
:1028700043FA012809DD02F04FFA044602F04CFA4F
:102880002402A4B2204380B238BD2A682368D31A38
:10289000F92BECD902F030FAA0B1134C23685B6835
:1028A000204612491722984702F036FA0146204680
:1028B0001022002303F09CFF204603F089FF4FF60F
:1028C000FF7038BD084C23685B6820460849132216
:1028D0009847204603F07CFF4FF6FF7038BD00BFDD
:1028E000D0AAFF1F24AAFF1FE4ACFF1F40E0000096
:1028F00058E000002DE9F041884617461E46BDF815
:102900001850BDF81C40FF2002F022F9C82002F048
:102910001FF94FEA182002F01BF95FFA88F002F065
:1029200017F9380A02F014F9F8B202F011F9300A76
:1029300002F00EF9F0B202F00BF9280A02F008F9E1
:10294000E8B202F005F9200A02F002F9E0B202F062
:10295000FFF80A4B1A680A4B1A60084D1C4606E03D
:1029600002F0CAF918B102F0D7F9BDE8F0812A687F
:102970002368D31AF92BF3D9BDE8F081D0AAFF1F41
:1029800024AAFF1F38B50D461446FF2002F0E0F8D8
:10299000CC2002F0DDF8280A02F0DAF8E8B202F002
:1029A000D7F8200A02F0D4F8E0B202F0D1F8094BCF
:1029B0001A68094B1A60074D1C4605E002F09CF9A5
:1029C00010B102F0A9F938BD2A682368D31AF92B8F
:1029D000F4D938BDD0AAFF1F24AAFF1F2DE9F0416A
:1029E000884617461E46BDF81850BDF81C40FF200B
:1029F00002F0AEF8C52002F0ABF84FEA182002F062
:102A0000A7F85FFA88F002F0A3F8380A02F0A0F8FD
:102A1000F8B202F09DF8300A02F09AF8F0B202F033
:102A200097F8280A02F094F8E8B202F091F8200A28
:102A300002F08EF8E0B202F08BF80A4B1A680A4BEB
:102A40001A60084D1C4606E002F056F918B102F073
:102A500063F9BDE8F0812A682368D31AF92BF3D90A
:102A6000BDE8F081D0AAFF1F24AAFF1F2DE9F04185
:102A7000884617461E46BDF81850BDF81C40FF207A
:102A800002F066F8C42002F063F84FEA182002F062
:102A90005FF85FFA88F002F05BF8380A02F058F845
:102AA000F8B202F055F8300A02F052F8F0B202F033
:102AB0004FF8280A02F04CF8E8B202F049F8200A70
:102AC00002F046F8E0B202F043F80A4B1A680A4BEB
:102AD0001A60084D1C4606E002F00EF918B102F02B
:102AE0001BF9BDE8F0812A682368D31AF92BF3D9C2
:102AF000BDE8F081D0AAFF1F24AAFF1F38B50C46FD
:102B0000FF2002F025F89E2002F022F8200A02F0B1
:102B10001FF8E0B202F01CF8284B1A68284B1A6024
:102B2000264D1C4605E002F0E7F810B102F0F4F87B
:102B300004E02A682368D31AF92BF4D91F4B1A68CA
:102B40001F4B1A601D4D1C460DE002F0D5F8012800
:102B500009DD02F0E1F8044602F0DEF82402A4B236
:102B6000204380B238BD2A682368D31AF92BECD9E8
:102B700002F0C2F8A0B1134C23685B6820461249EA
:102B80001722984702F0C8F8014620461022002379
:102B900003F02EFE204603F01BFE4FF6FF7038BDFB
:102BA000084C23685B682046084913229847204652
:102BB00003F00EFE4FF6FF7038BD00BFD0AAFF1F16
:102BC00024AAFF1FE4ACFF1F40E0000058E0000013
:102BD00038B504464FF4707001F0AAFE4FF4C0629D
:102BE000194B1A6040F2133203F5FF5318331A6081
:102BF0000025A3F5FF53143B1D604FF45172134B96
:102C00001A601820012101F0DFFD1820012101F0D8
:102C1000B7FD642001F01CFE1820294601F0B0FD2C
:102C20004FF47A6001F014FE20460121FFF766FFA1
:102C300020462946FFF7F4FDA06020460121FFF75A
:102C4000EFFDE06038BD00BF0CB0044000D0044090
:102C50002DE9F0478A4691469846BDF82070BDF8A8
:102C60002460BDF82850BDF82C40FF2001F070FF13
:102C7000BF2001F06DFF4FEA1A2001F069FF5FFAF3
:102C80008AF001F065FF4FEA192001F061FF5FFA59
:102C900089F001F05DFF4FEA182001F059FF5FFA5B
:102CA00088F001F055FF380A01F052FFF8B201F048
:102CB0004FFF300A01F04CFFF0B201F049FF280A43
:102CC00001F046FFE8B201F043FF200A01F040FFA7
:102CD000E0B201F03DFF0A4B1A680A4B1A60084D3A
:102CE0001C4606E002F008F818B102F015F8BDE83D
:102CF000F0872A682368D31AF92BF3D9BDE8F08747
:102D0000D0AAFF1F24AAFF1F2DE9F0478A4691464B
:102D10009846BDF82070BDF82460BDF82850BDF875
:102D20002C40FF2001F014FFA92001F011FF4FEA11
:102D30001A2001F00DFF5FFA8AF001F009FF4FEA57
:102D4000192001F005FF5FFA89F001F001FF4FEA59
:102D5000182001F0FDFE5FFA88F001F0F9FE380A54
:102D600001F0F6FEF8B201F0F3FE300A01F0F0FED9
:102D7000F0B201F0EDFE280A01F0EAFEE8B201F03F
:102D8000E7FE200A01F0E4FEE0B201F0E1FE0A4BAA
:102D90001A680A4B1A60084D1C4606E001F0ACFFA9
:102DA00018B101F0B9FFBDE8F0872A682368D31A8B
:102DB000F92BF3D9BDE8F087D0AAFF1F24AAFF1F83
:102DC000F8B50F4616461D46BDF81840FF2001F025
:102DD000BFFE392001F0BCFE380A01F0B9FEF8B29E
:102DE00001F0B6FE300A01F0B3FEF0B201F0B0FE21
:102DF000280A01F0ADFEE8B201F0AAFE200A01F0B7
:102E0000A7FEE0B201F0A4FE094B1A68094B1A6054
:102E1000074D1C4605E001F06FFF10B101F07CFF8B
:102E2000F8BD2A682368D31AF92BF4D9F8BD00BF7E
:102E3000D0AAFF1F24AAFF1F38B50C46FF2001F0BF
:102E400087FE382001F084FE200A01F081FEE0B206
:102E500001F07EFE094B1A68094B1A60074D1C46AB
:102E600005E001F049FF10B101F056FF38BD2A68B6
:102E70002368D31AF92BF4D938BD00BFD0AAFF1F9D
:102E800024AAFF1F38B50C46FF2001F061FEE620A2
:102E900001F05EFE200A01F05BFEE0B201F058FE98
:102EA000284B1A68284B1A60264D1C4605E001F095
:102EB00023FF10B101F030FF04E02A682368D31A21
:102EC000F92BF4D91F4B1A681F4B1A601D4D1C4675
:102ED0000DE001F011FF012809DD01F01DFF04469E
:102EE00001F01AFF2402A4B2204380B238BD2A6840
:102EF0002368D31AF92BECD901F0FEFEA0B1134CD4
:102F000023685B68204612491722984701F004FFA6
:102F1000014620461022002303F06AFC204603F0FD
:102F200057FC4FF6FF7038BD084C23685B6820469D
:102F3000084913229847204603F04AFC4FF6FF70D9
:102F400038BD00BFD0AAFF1F24AAFF1FE4ACFF1F9B
:102F500040E0000058E0000038B50C46FF2001F0CA
:102F6000F7FDE72001F0F4FD200A01F0F1FDE0B2E9
:102F700001F0EEFD284B1A68284B1A60264D1C46BE
:102F800005E001F0B9FE10B101F0C6FE04E02A68C8
:102F90002368D31AF92BF4D91F4B1A681F4B1A60F8
:102FA0001D4D1C460DE001F0A7FE012809DD01F0D2
:102FB000B3FE044601F0B0FE2402A4B2204380B266
:102FC00038BD2A682368D31AF92BECD901F094FE96
:102FD000A0B1134C23685B6820461249172298471A
:102FE00001F09AFE014620461022002303F000FC67
:102FF000204603F0EDFB4FF6FF7038BD084C236808
:103000005B682046084913229847204603F0E0FBFE
:103010004FF6FF7038BD00BFD0AAFF1F24AAFF1FC4
:10302000E4ACFF1F40E0000058E0000038B50C465B
:10303000FF2001F08DFDE52001F08AFD200A01F05E
:1030400087FDE0B201F084FD284B1A68284B1A6016
:10305000264D1C4605E001F04FFE10B101F05CFE6C
:1030600004E02A682368D31AF92BF4D91F4B1A6895
:103070001F4B1A601D4D1C460DE001F03DFE01285E
:1030800009DD01F049FE044601F046FE2402A4B227
:10309000204380B238BD2A682368D31AF92BECD9B3
:1030A00001F02AFEA0B1134C23685B682046124948
:1030B0001722984701F030FE0146204610220023D7
:1030C00003F096FB204603F083FB4FF6FF7038BDFC
:1030D000084C23685B68204608491322984720461D
:1030E00003F076FB4FF6FF7038BD00BFD0AAFF1F7C
:1030F00024AAFF1FE4ACFF1F40E0000058E00000DE
:1031000038B50C4603295FD8FF2001F021FDE520EA
:1031100001F01EFD2D4B33F81440200A01F018FD7C
:10312000E0B201F015FD2A4B1A682A4B1A60284DAF
:103130001C4605E001F0E0FD10B101F0EDFD04E0FA
:103140002A682368D31AF92BF4D9214B1A68214B2A
:103150001A601F4D1C460DE001F0CEFD012809DD6F
:1031600001F0DAFD044601F0D7FD2402A4B22043A9
:1031700080B238BD2A682368D31AF92BECD901F044
:10318000BBFDA0B1144C23685B682046134917228D
:10319000984701F0C1FD014620461022002303F0AC
:1031A00027FB204603F014FB4FF6FF7038BD0A4C96
:1031B00023685B6820460A4913229847204603F09B
:1031C00007FB4FF6FF7038BD002038BD28AAFF1F4F
:1031D000D0AAFF1F24AAFF1FE4ACFF1F40E000009D
:1031E00058E0000038B50C46FF2001F0B1FCDC20AF
:1031F00001F0AEFC200A01F0ABFCE0B201F0A8FC4B
:10320000284B1A68284B1A60264D1C4605E001F031
:1032100073FD10B101F080FD04E02A682368D31A21
:10322000F92BF4D91F4B1A681F4B1A601D4D1C4611
:103230000DE001F061FD012809DD01F06DFD04469E
:1032400001F06AFD2402A4B2204380B238BD2A688E
:103250002368D31AF92BECD901F04EFDA0B1134C21
:1032600023685B68204612491722984701F054FDF5
:10327000014620461022002303F0BAFA204603F04C
:10328000A7FA4FF6FF7038BD084C23685B682046EC
:10329000084913229847204603F09AFA4FF6FF7028
:1032A00038BD00BFD0AAFF1F24AAFF1FE4ACFF1F38
:1032B00040E0000058E0000038B50C46FF2001F067
:1032C00047FCDD2001F044FC200A01F041FCE0B2A3
:1032D00001F03EFC284B1A68284B1A60264D1C460C
:1032E00005E001F009FD10B101F016FD04E02A68C7
:1032F0002368D31AF92BF4D91F4B1A681F4B1A6095
:103300001D4D1C460DE001F0F7FC012809DD01F020
:1033100003FD044601F000FD2402A4B2204380B264
:1033200038BD2A682368D31AF92BECD901F0E4FCE4
:10333000A0B1134C23685B682046124917229847B6
:1033400001F0EAFC014620461022002303F050FA67
:10335000204603F03DFA4FF6FF7038BD084C236855
:103360005B682046084913229847204603F030FA4C
:103370004FF6FF7038BD00BFD0AAFF1F24AAFF1F61
:10338000E4ACFF1F40E0000058E0000038B50C46F8
:10339000FF2001F0DDFBDF2001F0DAFB200A01F065
:1033A000D7FBE0B201F0D4FB284B1A68284B1A6017
:1033B000264D1C4605E001F09FFC10B101F0ACFC6D
:1033C00004E02A682368D31AF92BF4D91F4B1A6832
:1033D0001F4B1A601D4D1C460DE001F08DFC0128AD
:1033E00009DD01F099FC044601F096FC2402A4B228
:1033F000204380B238BD2A682368D31AF92BECD950
:1034000001F07AFCA0B1134C23685B682046124996
:103410001722984701F080FC014620461022002325
:1034200003F0E6F9204603F0D3F94FF6FF7038BDFC
:10343000084C23685B6820460849132298472046B9
:1034400003F0C6F94FF6FF7038BD00BFD0AAFF1FCA
:1034500024AAFF1FE4ACFF1F40E0000058E000007A
:1034600038B50C46FF2001F073FBDB2001F070FB48
:10347000200A01F06DFBE0B201F06AFB284B1A68EC
:10348000284B1A60264D1C4605E001F035FC10B1B2
:1034900001F042FC04E02A682368D31AF92BF4D91E
:1034A0001F4B1A681F4B1A601D4D1C460DE001F0A2
:1034B00023FC012809DD01F02FFC044601F02CFC5F
:1034C0002402A4B2204380B238BD2A682368D31AEC
:1034D000F92BECD901F010FCA0B1134C23685B6808
:1034E000204612491722984701F016FC0146204653
:1034F0001022002303F07CF9204603F069F94FF60F
:10350000FF7038BD084C23685B68204608491322C9
:103510009847204603F05CF94FF6FF7038BD00BFB6
:10352000D0AAFF1F24AAFF1FE4ACFF1F40E0000049
:1035300058E0000038B50C46FF2001F009FBE120FF
:1035400001F006FB200A01F003FBE0B201F000FBF2
:10355000284B1A68284B1A60264D1C4605E001F0DE
:10356000CBFB10B101F0D8FB04E02A682368D31A22
:10357000F92BF4D91F4B1A681F4B1A601D4D1C46BE
:103580000DE001F0B9FB012809DD01F0C5FB04469F
:1035900001F0C2FB2402A4B2204380B238BD2A68E5
:1035A0002368D31AF92BECD901F0A6FBA0B1134C78
:1035B00023685B68204612491722984701F0ACFB4C
:1035C000014620461022002303F012F9204603F0A2
:1035D000FFF84FF6FF7038BD084C23685B68204643
:1035E000084913229847204603F0F2F84FF6FF707F
:1035F00038BD00BFD0AAFF1F24AAFF1FE4ACFF1FE5
:1036000040E0000058E00000F8B50F4616461D46A1
:10361000002001F09DFA092001F09AFA384606F0E0
:103620002DF80246374C23685B6820463946984798
:1036300023681B68204600219847304606F01EF894
:10364000024623685B6820463146984723681B681A
:10365000204600219847280A01F07AFAE8B201F0E2
:1036600077FA294B1A68294B1A60274D1C4605E04A
:1036700001F042FB10B101F04FFB04E02A6823681F
:10368000D31AF92BF4D9204B1A68204B1A601E4D1F
:103690001C460DE001F030FB012809DD01F03CFB88
:1036A000044601F039FB2402A4B2204380B2F8BDE5
:1036B0002A682368D31AF92BECD901F01DFBA0B1BD
:1036C000134C23685B68204612491722984701F083
:1036D00023FB014620461022002303F089F82046F0
:1036E00003F076F84FF6FF70F8BD094C23685B686D
:1036F0002046094913229847204603F069F84FF6FF
:10370000FF70F8BDBCACFF1FD0AAFF1F24AAFF1F8B
:10371000E4ACFF1F40E0000058E0000038B5FF2097
:1037200001F016FA032001F013FA284B1A68284B0F
:103730001A60264D1C4605E001F0DEFA10B101F0DA
:10374000EBFA04E02A682368D31AF92BF4D91F4B4B
:103750001A681F4B1A601D4D1C460DE001F0CCFA93
:10376000012809DD01F0D8FA044601F0D5FA240257
:10377000A4B2204380B238BD2A682368D31AF92B3B
:10378000ECD901F0B9FAA0B1124C23685B6820466D
:1037900011491722984701F0BFFA0146204610222E
:1037A000002303F025F8204603F012F84FF6FF70CF
:1037B00038BD084C23685B682046084913229847A7
:1037C000204603F005F84FF6FF7038BDD0AAFF1F62
:1037D00024AAFF1FE4ACFF1F40E0000058E00000F7
:1037E00038B505460E490F4A0123FFF70DFF0E4C71
:1037F000208028460D490E4A0123FFF705FF60800F
:1038000028460C490C4A0123FFF7FEFEA0802846FB
:103810000A490B4A0123FFF7F7FEE08038BD00BFDD
:103820006CE000007CE0000028AAFF1F8CE0000094
:103830009CE00000ACE00000BCE00000CCE0000038
:10384000DCE0000008B50449044A0123FFF7DCFE70
:10385000034B188008BD00BFECE00000FCE0000056
:1038600010AAFF1F08B5044B1A68044B1A600448DD
:10387000FEF7C8FE08BD00BFD0AAFF1F24AAFF1F85
:1038800014AAFF1F2DE9F04182B004460189828904
:103890005A4D03680B444068104480B200904FF6C4
:1038A000FF76019628469BB2FFF798F8284600213C
:1038B000FFF7E8FA28463146FFF74EFB2846217EFF
:1038C000FFF71EFCA768264656F8248B284631468B
:1038D000FEF76CFFC0EB080000EBD07007EB600751
:1038E0002761E768D4F8048028463146FEF774FF64
:1038F000C0EB080000EBD07007EB60026261284665
:10390000218A92B2FFF73EF828460021FFF73EFDDC
:10391000236A012B20D0022B3CD0002B5CD12846FF
:103920000021FFF707FE28460021FFF799FD2389B4
:10393000A089991D821D27683B44063B646820448A
:10394000063880B2009000200190284689B292B2D9
:103950009BB2FFF78BF83FE0284D28460421FFF784
:10396000E9FD28460121FFF77BFD2389A089991DE8
:10397000821D27683B44063B64682044063880B2B9
:10398000009000200190284689B292B29BB2FFF7C6
:103990006DF821E02389A089184D991D821D2768A3
:1039A0003B44063B64682044063880B200904FF6E2
:1039B000FF700190284689B292B29BB2FFF756F889
:1039C00028460121FFF70EFC28460021FFF7B2FD33
:1039D00028460021FFF744FD304605F04FFE024621
:1039E000064C23685B6820463146984720460021F4
:1039F000FFF7F8FB02B0BDE8F08100BF14AAFF1F7B
:103A000010B5054C23685B68204604490B22984793
:103A1000204602F0DDFE10BDE4ACFF1F0CE100000B
:103A200070B584B00646089C0094099C0194084C2B
:103A3000029400F099F9074C0FCC7063B163F26304
:103A4000336407CC7064B164F264304604B070BD76
:103A500018E1000020E1000070B50546304C20461A
:103A60000021FFF793FC20460321FFF7DFFA2046F1
:103A700050219B22FEF786FF20464FF6FF71FFF78D
:103A80006BFA23685B682046264906229847204641
:103A9000C8219B22FEF776FF23685B6820462249F7
:103AA0000722984720460021FFF72AFB204647F6C9
:103AB000FA71FFF751FA20460A21AF22FEF762FFA2
:103AC00020460121FFF7F8FB2046E96902F0CCFE11
:103AD00023685B68204615490322984705F13406A0
:103AE000304605F0CBFD024623685B682046314630
:103AF000984720460021FFF7DFFB2046297EFFF78D
:103B0000FFFA20464FF6FF71FFF726FA2046912173
:103B10007822FEF737FF2046E96902F0A5FE70BD66
:103B200014AAFF1F3CE1000044E100004CE100004A
:103B300010B50446104619460022034B03F022FF3D
:103B400004F0BAF9E06110BD0000244030B587B040
:103B50000546C06904F0E2FA474904F0E7FB03F0C8
:103B6000BDFECDE9000104A80821444A05F052FD3C
:103B7000434C20460121FFF7C3FA20464FF6FF7160
:103B8000FFF7EAF920460021FFF700FC2B6A012B22
:103B900016D0022B27D0002B40D125467D22009243
:103BA000A02301932623029300240394284668212E
:103BB000D823FFF7A9F828462146FFF751FC2DE04E
:103BC0002F4C7D220092A0230193262302930023F1
:103BD000039320466821D823FFF796F82046012159
:103BE000FFF73EFC1AE0264C20460021FFF7A2FC1E
:103BF00020460121FFF7F6FA7D220092A0230193CF
:103C0000262302934FF6FF73039320466821D8239F
:103C1000FFF77AF820460021FFF722FC184CA56830
:103C2000204604A9FEF7C2FD281A00EBD0712046F9
:103C3000C1F34F015E22FEF7A5FE04A805F01EFDAC
:103C4000024623685B68204604A998472046002165
:103C5000FFF756FA20468E214122FEF793FE236895
:103C60005B68204607490322984720460021FFF75A
:103C7000B9FA07B030BD00BF0000204150E100009C
:103C800014AAFF1F58E1000070B584B00646C06951
:103C900004F044FA2F4904F049FB03F01FFE0446E8
:103CA0000D4600222C4B04F0DFF838B1CDE9004579
:103CB00002A80821294A05F0ADFC06E0CDE900453F
:103CC00002A80821264A05F0A5FC264C2046012121
:103CD000FFF716FA20464FF6FF71FFF73DF9204631
:103CE0000121FFF753FB336A012B07D0022B0AD0C7
:103CF000B3B920460021FFF7B3FB11E019480121B9
:103D0000FFF7AEFB0CE0174C20460021FFF712FC3A
:103D100020460121FFF766FA20460021FFF7A0FBAD
:103D2000104CA568204602A9FEF740FD281A00EBBA
:103D3000D0712046C1F34F015A22FEF723FE02A89C
:103D400005F09CFC024623685B68204602A9984760
:103D500004B070BD00002041000059405CE100004B
:103D600050E1000014AAFF1F10B504460360029B37
:103D700043608160C260039B8361016142610023F3
:103D80000362C36124300499102205F0A7FC204689
:103D900010BD00BF704700BF08B500F061FA08BD54
:103DA00010B4194B9B6F1A6814785A6811785A7AB4
:103DB00011409A7A02F00302187A044218BF42F0C6
:103DC000040209B142F0080291109972013A0D2AD9
:103DD00017D8DFE802F0070B0F0B161307071316AF
:103DE0000B0F0B07DA680132DA600AE0DA68013A91
:103DF000DA6006E0DA680232DA6002E0DA68023A93
:103E0000DA605DF8044B7047ACA3FF1F10B4194B88
:103E10005B6F1A6814785A6811785A7A11409A7A46
:103E200002F00302187A044218BF42F0040209B1FA
:103E300042F0080291109972013A0D2A17D8DFE872
:103E400002F0070B0F0B1613070713160B0F0B07C8
:103E5000DA680132DA600AE0DA68013ADA6006E02C
:103E6000DA680232DA6002E0DA68023ADA605DF8B3
:103E7000044B7047ACA3FF1F704700BF10B5094843
:103E8000FEF7A6FE084C2046FEF7ACF920460021BE
:103E9000FEF758F92046054BD3E90023FEF7B6F8A4
:103EA00010BD00BF14AAFF1FE8A9FF1F08AAFF1F2B
:103EB00070B505462D4B1B7C012B35D872B62B4BAC
:103EC0001A6810785A6811785A7A11409A7A02F072
:103ED00003021B7A184218BF42F0040209B142F0F3
:103EE00008029110214B9972013A0D2A1DD8DFE882
:103EF00002F0070C110C1C160707161C0C110C07FE
:103F00001A4BDA680132DA600FE0184BDA68013ACE
:103F1000DA600AE0154BDA680232DA6005E0134B2A
:103F2000DA68023ADA6000E072B6104BDC6862B61A
:103F3000686AA04211D00E4E201A04F0EFF80D4925
:103F400004F040F903F0CAFCD6E9002303F068FB53
:103F500002460B463046FEF733FA0748044BD3E9D6
:103F60000023FEF753F86C6270BD00BF30AAFF1F3C
:103F700008AAFF1FCDCCCC3DE8A9FF1F08B5FFF76D
:103F800097FF08BD38B51D20022100F01DFC1E2042
:103F9000022100F019FC1B4AD2F8E8101A4B01F577
:103FA0000070186001201872D2F8F02002F5007439
:103FB0005C6058720020D8604FF47A43013B7FF474
:103FC000FDAF91F8003203F0010392F8002212F0E5
:103FD000010F1CBF43F00203DBB20B4CA3720B4D6D
:103FE0006C671D200A49042200F05AFB0123237448
:103FF000AC671E200749042200F052FB237C0133EA
:10400000237438BD74E1000030AAFF1FACA3FF1F6A
:104010000D3E0000A13D0000844641EA000313F07C
:1040200003036DD1403A41D351F8043B40F8043BBF
:1040300051F8043B40F8043B51F8043B40F8043B82
:1040400051F8043B40F8043B51F8043B40F8043B72
:1040500051F8043B40F8043B51F8043B40F8043B62
:1040600051F8043B40F8043B51F8043B40F8043B52
:1040700051F8043B40F8043B51F8043B40F8043B42
:1040800051F8043B40F8043B51F8043B40F8043B32
:1040900051F8043B40F8043B51F8043B40F8043B22
:1040A00051F8043B40F8043B403ABDD2303211D3C2
:1040B00051F8043B40F8043B51F8043B40F8043B02
:1040C00051F8043B40F8043B51F8043B40F8043BF2
:1040D000103AEDD20C3205D351F8043B40F8043BC2
:1040E000043AF9D2043208D0D2071CBF11F8013BC0
:1040F00000F8013B01D30B8803806046704700BF86
:10410000082A13D38B078DD010F003038AD0C3F194
:104110000403D21ADB071CBF11F8013B00F8013B76
:1041200080D331F8023B20F8023B7BE7043AD9D335
:10413000013A11F8013B00F8013BF9D20B7803700A
:104140004B7843708B7883706046704760223A4B9F
:104150001A70E12201331A70384B1B78082B10D1EA
:10416000012203F1804303F56C331A6013233449B1
:104170000B6001F5FF2101F2FC710A60314A136006
:104180001FE00A2B0DD139222F4B1A6013232C4923
:104190000B6001F5FF2101F2FC710A60294A1360EE
:1041A0000FE00C2B0CBF35223D22274B1A60122347
:1041B00023490B6001F5FF2101F2FC710A60214ADD
:1041C0001360224B1B7833B10123214A136002F59F
:1041D0000022136005E000231D4A136002F500224F
:1041E00013601C4B1B78012B06D880231A4A1360DE
:1041F00002F5002213601AE0042B06D88423164A25
:10420000136002F50022136011E0082B06D8852305
:10421000114A136002F50022136008E0102B94BFCE
:10422000862387230C4A136002F5002213600122C3
:104230000A4B1A70704700BF00400740B098FF1F3C
:104240000CB003400CB00B4008B0034045AAFF1F60
:1042500020B00340B198FF1F24B0034044AAFF1FC1
:1042600010B584B0174B6C46186859689A68DB68BB
:104270000FC4154B1B7813F0020F19D08022134B7B
:104280001A70332204331A700322013B1A7072B67B
:104290006B4643F001030E4C2046984762B62378E4
:1042A00013F0700304D0237009E0013B03D106E052
:1042B00044F6216304490A7812F0010FF5D004B0E6
:1042C00010BD00BF64E10000010002400700024091
:1042D00000000240024B1A6801321A60704700BFAA
:1042E000D0AAFF1F08B50D4C236813F4802F01D00E
:1042F00000F000FF236813F4806F01D002F084FD0A
:10430000236813F4006F01D000F080FD236813F4DC
:10431000805FE9D003F008F8E6E700BF348004408E
:1043200008B5FFF7DFFF00BF1022014B1A8070476E
:1043300000200540704700BF024A1368184410600F
:1043400018467047B498FF1FFEE700BFEFF31383D2
:10435000ABB9EFF31083ABB9EFF3058323B10F2BA8
:1043600005D9094A985C03E04FF4807000E0002012
:10437000EFF311833BB1834238BF184670474FF0CB
:10438000FF30704700207047F0E300E030B40023B6
:10439000B0FBF2F402FB14041D46092C94BF303428
:1043A0003734E4B2CC54B0FBF2F008B10133EFE79C
:1043B0000D4400226A70934207DD885CCC5C8C540B
:1043C000C8540132013B9A42F7DB084630BC7047C3
:1043D00010B5154B1C681C6014F4805F05D0134B9E
:1043E000DB6813B1114BDB68984714F4005F05D00C
:1043F0000E4B1B6913B10D4B1B69984714F0200F2E
:1044000005D00A4B1B6E13B1084B1B6E984714F076
:10441000100F07D0054BD3F884301BB1034BD3F8F2
:104420008430984710BD00BFA090044048AAFF1FE9
:1044300010B5274B1C681C6014F4803F05D0254B39
:104440001B6813B1234B1B68984714F4003F05D039
:10445000204B5B6813B11F4B5B68984714F0010F4A
:1044600005D01C4B1B6C13B11A4B1B6C984714F0F6
:10447000020F05D0174B5B6C13B1164B5B6C984762
:1044800014F0080F05D0134B9B6C13B1114B9B6CB0
:10449000984714F0040F05D00E4BDB6C13B10D4B95
:1044A000DB6C984714F4002F05D00A4B5B6E13B1F8
:1044B000084B5B6E984714F4802F07D0054BD3F858
:1044C00080301BB1034BD3F88030984710BD00BF3C
:1044D000A0A0044048AAFF1F10B5384B1C681C6000
:1044E00014F0080F05D0364B5B6A13B1344B5B6A8E
:1044F000984714F0100F05D0314B9B6A13B1304B25
:104500009B6A984714F0400F05D02D4BDB6A13B11E
:104510002B4BDB6A984714F0800F05D0284B1B6BA0
:1045200013B1274B1B6B984714F0200F05D0244B79
:104530005B6B13B1224B5B6B984714F0010F05D0F6
:104540001F4BDB6B13B11E4BDB6B984714F0020F54
:1045500005D01B4B9B6D13B1194B9B6D984714F005
:10456000040F05D0164BDB6D13B1154BDB6D98476F
:1045700014F4007F05D0124BDB6E13B1104BDB6ED1
:10458000984714F4807F05D00D4B1B6F13B10C4B73
:104590001B6F984714F4806F05D0094B5B6F13B104
:1045A000074B5B6F984714F4006F05D0044B9B6F6B
:1045B00013B1034B9B6F984710BD00BFA0B00440E0
:1045C00048AAFF1F10B5264B1C681C6014F0010F91
:1045D00005D0244B9B6813B1224B9B68984714F07D
:1045E000800F05D01F4B5B6913B11E4B5B69984769
:1045F00014F0100F05D01B4B9B6913B1194B9B692D
:10460000984714F0040F05D0164BDB6913B1154B16
:10461000DB69984714F0080F05D0124B1B6A13B1E1
:10462000104B1B6A984714F0020F05D00D4B9B6B83
:1046300013B10C4B9B6B984714F0200F05D0094B1E
:104640001B6D13B1074B1B6D984714F0400F05D03D
:10465000044B5B6D13B1034B5B6D984710BD00BFFE
:10466000A0C0044048AAFF1F10B50B4B1C681C607B
:1046700014F0020F05D0094B9B6E13B1074B9B6ED4
:10468000984714F0010F05D0044BDB6F13B1034BB7
:10469000DB6F984710BD00BFA0D0044048AAFF1FA1
:1046A00030B4212831D8042A2FD8DFE802F00709D6
:1046B000050B03000B2406E00A2404E0082402E0B2
:1046C0000C2400E00924124B03EBC0035A68114B81
:1046D000114DC3F89C51114DC3F8A051104DC3F8B2
:1046E000A451104DC3F8A8510F4DC3F8AC5172B688
:1046F000136823F4702313600C4D45F8201043F029
:10470000807343EA0444146062B630BC704700BF53
:1047100074E100000092FF1FD1430000314400000B
:10472000D9440000C54500006946000048AAFF1FA3
:10473000094B03EBC0035A6872B6136823F0877302
:1047400023F4803343F0807313600022034B43F85B
:10475000202062B6704700BF74E1000048AAFF1F26
:10476000044B00221A6004490A60044A10601022B7
:104770001A60704714D0034004D0034000D00340B7
:1047800021281ED80F4B53F8303093F8802212F0B6
:10479000FF0F08D019B1012283F880207047012251
:1047A00083F800217047074B03EBC000436821B139
:1047B0001A6842F003021A6070471A6822F0020277
:1047C0001A60704774E1000021281CD80E4B03EBDF
:1047D000C0035B68012908D10B4A52F8302082F8E7
:1047E00080124FF4A2721A607047074A52F83020C4
:1047F000002082F8800219B94FF480721A60704765
:1048000040F203121A60704774E1000072B60C4B5C
:104810001B680C4A12680C49096862B611F0806F77
:1048200002D0322B88BF0132C3F5BB33FF330749B7
:10483000A1FB03039B094FF47A7000FB0230704721
:1048400018E000E0D0AAFF1F04ED00E0ABAAAAAA7E
:1048500038B50546FFF7DAFF044625B938BD013DF6
:104860000AD004F57A74FFF7D1FF001BB0F57A7F08
:10487000F5D202F02FF8F6E738BD00BF10B5254B92
:104880004FF400021A604FF080721A604FF000720D
:104890001A604FF080621A604FF000621A600020C8
:1048A0001D4B18604BF6FF710433196028231B4A17
:1048B0001360083213600832136008321360083244
:1048C0001360083213600832136008321360092243
:1048D000134C226004F580540434206004342160B9
:1048E0000434236008342360143C226004F5FE2461
:1048F000043420600B4801600B490B6008310B60E9
:104900000A4B1A60FFF722FCFA20FFF7A1FF00F024
:1049100063FF10BD08E100E0048003400C80034009
:104920000080034008800B400C800B4000800B404F
:10493000194B1A6842F400621A600023174A137078
:10494000174A1370174A1370174A1370174A1370D7
:1049500040F21332164B1A604FF4517204331A604E
:10496000C0F34432134B1A70C0F347125A7000F070
:104970001F00987204229A700221D9745A758822F5
:104980001A743C22DA7040220B4B1A704FF400422A
:10499000A3F22B331A6070473480044044ABFF1FEE
:1049A000D9AAFF1F4CABFF1F45ABFF1FD8AAFF1FA3
:1049B0000CB0044000B006402FE400E0164B9B789A
:1049C00003F0EC0300F00302134310F0040F18BFD0
:1049D00043F01003104A937000F00F03042B04D12E
:1049E0001346927942F040029A710B4B5A7902F0C9
:1049F000EF0210F0100F18BF42F01002064B5A7170
:104A00009B7903F0EF0310F0200F18BF43F0100361
:104A1000014A9371704700BF00B0064010B5144BB7
:104A20001B6813F4006F21D0124B1B7813F0FF0F9B
:104A300006D0104C01F04EFF237813F0FF0FF9D190
:104A40004FF400420C4B1A6000230C4AD37040F222
:104A500003120B490A6004310A600A4A13700A4AB9
:104A600013700A4B1B680BB101221A7010BD00BFF6
:104A700034800440D8AAFF1F84E100E000B0064063
:104A80000CB0044044ABFF1FD9AAFF1FD4AAFF1FDC
:104A900010B50446094A137813F0FF0FFBD12046E6
:104AA0000121FFF791FE20460021FFF769FE044B2C
:104AB00053F83420034B1A6010BD00BFD8AAFF1F63
:104AC00074E1000048ABFF1F10B50D4B1B6813F4D9
:104AD000006F12D021280CD80A4C0B4B53F8303001
:104AE00023600121FFF770FE236800221A70012065
:104AF00010BD0020034B186010BD002010BD00BF8A
:104B000034800440D4AAFF1F74E100000D4B1B68E1
:104B100013F4006F13D017280AD140F202320A4B67
:104B20001A600A4B5A7B42F001025A730120704707
:104B3000064B5A7B02F0FE025A7300207047002099
:104B4000704700BF3480044008B0044000B0064005
:104B50002DE9F04107461F4B1B6813F4006F37D057
:104B60001D4B1B680BB101221A701C4B1C780134C1
:104B7000282C28BF00241A4D1A4EDFF86C8017E04D
:104B8000FFF7E4FB40280FDC337913F0800F0FD0E0
:104B90002B780133282B28BF002318F80320D2B22A
:104BA000F271DBB22B7003E0FF2801DD01F092FE11
:104BB0002B78DBB29C42E3D0FFB20B4B1F55012296
:104BC0000A4B1A70E4B2054B1C70BC22054BDA701C
:104BD000BDE8F0813480044048ABFF1F4CABFF1FA1
:104BE00045ABFF1F00B00640DCAAFF1FD8AAFF1F7D
:104BF0002DE9F84F0746284B1B6813F4006F49D086
:104C0000264B1B680BB101221A7007EB010B5F45A5
:104C10003DD2DFF89890224EDFF88C80DFF890A02C
:104C200099F800400134282C28BF00243578EDB2D3
:104C3000A54220D1BC2388F80330FFF787FB40282A
:104C400011DC98F8043013F0800F10D03378013362
:104C5000282B28BF00231AF80320D2B288F8072097
:104C6000DBB2337003E0FF2801DD01F033FE33785F
:104C7000DBB29D42E1D017F8013B0AF80430012273
:104C8000084B1A70E4B289F800405F45C8D1BC22D5
:104C9000054BDA70BDE8F88F3480044048ABFF1F45
:104CA00045ABFF1FD8AAFF1F00B006404CABFF1F4B
:104CB000DCAAFF1F10B5064B1B7813F0FF0F06D0C0
:104CC000034C01F007FE237813F0FF0FF9D110BD5C
:104CD000D8AAFF1F064B1B78DBB2064A1278D2B265
:104CE00093422CBF273202F1FF32D01A704700BF27
:104CF0004CABFF1F45ABFF1F054B1878C0B2054BEF
:104D00001B78DBB2984238BF4030C01A704700BFF2
:104D100044ABFF1FD9AAFF1F10B4184B1A78D2B2A8
:104D2000174B1B78DBB29A4218D001333F2B18D8AF
:104D30001449C85CC0B2DCB211490C701249096850
:104D4000C9B19A4203D300E00023D31A01E04032F4
:104D5000D31A1A2B0FDC00230B700CE04FF0FF303E
:104D600009E0084B1878C0B20021054B1970064BBA
:104D700019680029E8D15DF8044B704744ABFF1F68
:104D8000D9AAFF1F04ABFF1FD4AAFF1F094B1A7833
:104D9000D2B2094B1B78DBB29A4207D00133402BC9
:104DA00028BF0023054AD05CC0B270474FF0FF30E7
:104DB000704700BF44ABFF1FD9AAFF1F04ABFF1F02
:104DC0000D4B1B6813F4006F14D00C4BDA7802F013
:104DD000CB02DA7040225A74DA7842F03402DA7088
:104DE000074B1A78D2B2074B1A70074B1B680BB1EE
:104DF00000221A70704700BF3480044000B00640A3
:104E0000D9AAFF1F44ABFF1FD4AAFF1F70B43D4BAC
:104E10001B7913F0300F33D072B63A4B9B7D03F001
:104E2000FF022BB9374BDA7940225A7462B627E079
:104E300062B6354B1978C9B2344B1C78E4B2314DA7
:104E4000334EEB79D8B24B1C402B28BF0023A34232
:104E50001CBFF0541946531E13F0FF02F1D1CAB221
:104E6000294B1A702B4B1B6853B1A1422EBFC4EBC8
:104E70000101C4F1400409192729C4BF01221A7095
:104E8000204BDA78D2B212F0800F27D01B7913F0C2
:104E9000800F23D0204B1C78E4B2204B1B78DBB270
:104EA0009C4210D017491E4D01E0A3420BD00133A4
:104EB000282B28BF00230879E85CC0B2C871087DA0
:104EC000C0B20728F1D9DBB214490B700D4B1B7926
:104ED00013F0800F02D07C210A4BD97012F0400FE2
:104EE0000ED0084B1B7913F0400F09D000220D4B58
:104EF0001A700D4B1B6803B11A703C22014BDA701B
:104F000070BC704700B0064044ABFF1FD9AAFF1F1A
:104F100004ABFF1FD4AAFF1F4CABFF1F45ABFF1F05
:104F2000DCAAFF1FD8AAFF1F48ABFF1F30B40E4BEF
:104F30001B7843F002020D4C04EBC20460600C4885
:104F4000007800280CBF8824C82444EA0141074D9A
:104F500045F8321080F00100054A107083F001031B
:104F6000014A137030BC7047B8ABFF1F0080FF1FB1
:104F700031ACFF1F10B4431E032B11D872B60A4A7E
:104F800052F8230050B14268074941F82320074AEC
:104F900032F813400188611A22F8131062B600E05B
:104FA00000205DF8044B7047A8ABFF1F4CAEFF1FFD
:104FB000013803280DD872B6074B53F820302BB1B7
:104FC000002001305B68002BFBD100E0002062B6BE
:104FD00070470020704700BFFCABFF1F38B572B6AA
:104FE00001231B491B4C5A1812F8012C12F0080F10
:104FF00024D09A0054F832506DB9164B03EBC2011D
:1050000008304860144943F83210144B1A78013ABA
:105010001A7062B638BD42F0010254F832506DB9D0
:105020000C4B03EBC201083048600D4943F83210C5
:105030000A4B1A78013A1A7062B638BD0133052B53
:10504000D1D162B60022054B1A7000F029FC38BDA0
:1050500060E300000080FF1F8800400026ACFF1FB7
:10506000C800400010B4431E032B37D8400140F065
:1050700010001C4A104472B61B4AD25C032A09D89D
:10508000DFE802F019021B050830022216E00830A2
:10509000042213E0154A52F823201AB9134A42F8A1
:1050A000231003E0124A52F823205160104A42F8BC
:1050B000231062B612E0032200E005220A4CE254FB
:1050C00001F10803436000F00803002B0CBF8823A4
:1050D000C8230A8843EA0243036062B65DF8044BC2
:1050E000704700BF0080FF1F64ABFF1FFCABFF1FBA
:1050F0000CACFF1F2DE9F84FA94CDFF8F492DFF854
:10510000F4A2DFF8F4B22578EDB215F0040F1FD049
:10511000A44B1B7813F0FF0F18D0A34B1B7803F0A0
:10512000FF022BB1531EDBB29F4A137003B900BEBE
:105130009E4B1B7803F0FF0233B1531EDBB29B4A38
:1051400013700BB900F00AFF00F046FC0423237033
:1051500015F0080F00F0D48299F80030DBB21D0979
:1051600040F01582924D9E0805EBC6035A6855F82B
:105170003630C3F38303013B0C2B00F20482DFE8DB
:1051800013F0BB01BB010202020202020202020290
:105190000202DC010202020202020D0085491368CC
:1051A0000B6052684A60844A45F8362000228349E1
:1051B0000A607F490A618A610121814A11709BB2AC
:1051C00040F28162934218D8B3F5D06F29D2B3F57B
:1051D000817F00F0178106D8802B00F0C380822BDE
:1051E00000F0C68056E140F20232934200F01F8187
:1051F000B3F5A06F00F052814CE1B3F5106F16D0FB
:1052000004D8B3F5086F00F0A78043E140F62112FF
:10521000934200F06D8140F62122934200F03E81DE
:1052200038E1684B5D68002D40F016812EE1614B3E
:105230009A785C4B1A705E4D05F180062B6A13F06C
:10524000800F03D0686A083800F02AFB0835B542A1
:10525000F4D1DFF8A881002637465B4AB05828B160
:10526000456800F01DFB0DB12846F9E700235649BB
:105270007350564AB350564BF05828B1456800F069
:105280000FFB0DB12846F9E7002351497350514AED
:10529000B35028F8023F504BFB5C023B032B0AD86B
:1052A000DFE803F00206020600224B4BDA5502E06B
:1052B0000122494BDA5501370436102ECDD1002298
:1052C000464B1A700125464FDFF83481384E05EB06
:1052D000080313F8013C07F8043B13F0080F2DD026
:1052E00000F0BEFA48B1A90006EB451200F1080330
:1052F00053603C4A46F8312007E0AB00002246F8F4
:105300003320364B1A7801321A7000F0A9FA58B1DE
:10531000AB0043F0010306EBC30100F108024A6051
:10532000254A46F8332009E0AB0043F00103002290
:1053300046F83320294B1A7801321A70AA0042F03D
:105340000201002346F8313042F0030246F83230C1
:1053500001355F45BBD114E2124B1B78224D2B70F7
:105360000127A0E0204D00232B706B7002279AE0EC
:10537000104B9B88042B03D90F221C4B1A70B7E0EB
:10538000194A002111705170184A12F8233013F095
:10539000020F00F08680144D01232B70022782E05B
:1053A0008020074030ACFF1FB9ABFF1F7CACFF1F54
:1053B0000080FF1F1CACFF1FC800400050ABFF1F48
:1053C00031ACFF1F64E30000A8ABFF1F54ABFF1F0D
:1053D000FCABFF1F0CACFF1F64ABFF1F26ACFF1F15
:1053E000C42007408800400028ACFF1FC0200740B1
:1053F0009020074094200740D42007404AAEFF1F6A
:1054000060E30000964B9B8803F07F03042B02DCD3
:10541000934A52881AB10F22924B1A7068E0914A4F
:1054200012F8231021F0020102F82310A9E18C4B9D
:105430009B8803F07F03042B02DC894A52881AB14F
:105440000F22884B1A7053E0864A12F8231041F05D
:10545000020102F8231094E1814B5E889F88824B01
:10546000A3F10C02114633F80C0CB04209D133F809
:105470000A0CB84205D1360A032E0CBF2F781789C3
:1054800011E00D690C330C32002DEBD10F22754B5E
:105490001A702DE00F22734B1A7029E000273D4649
:1054A00001E00227714D6E4BDB889F4228BF1F46EB
:1054B000402F34BF3E46402628463146FFF736FD92
:1054C0003544BF1B03D13F2E00F2608110E0402F16
:1054D00034BF3E46402628463146FFF727FD354477
:1054E000BF1B01D13F2E03D9614B1D60614B1F8053
:1054F00001238AF8003046E0594B19685E4B994207
:1055000017D1574B59685D4B994212D11378A92B8B
:105510000FD15378452B0CD19378C22B09D1D37876
:105520006B2B06D10522564B1A7000200146FFF75F
:10553000FDFC544B45F8363025E04D4B1E68BEB19E
:105540004C4FB7F80080B8F1400F34BF45464025B6
:1055500030462946FFF7EAFCC5EB08039BB23B80C7
:105560000BB9402D01D1354400E00025404B1D60B2
:105570003B4B1B88B3F5A06F05D1394B00225A7005
:105580009B7841490B7001238AF80030B5E03F4E0B
:105590009F0806EBC708D8F80420A2F10800013DD7
:1055A000EDB213F0080F47D000F07AF9384B53F8FA
:1055B00025304BB35A68364941F8252003F10802DB
:1055C000C8F80420334A525D032A12D8DFE802F0FB
:1055D00002060A0E03212F4A51550AE002212D4AE4
:1055E000515506E005212B4A515502E00421294A74
:1055F000515518F0080F0CBF8822C8221B8842EAB8
:10560000034346F8373078E0224B5B5D032B0BD821
:10561000DFE803F07373020600221E4B5A556CE05C
:1056200001221C4B5A5568E018F0080F0CBF0222EB
:105630000322184B5A5560E056F837301B0C22F8FD
:10564000083C002B51D0002322F8063C42F8043CD1
:10565000114B53F825300BBB0F4B43F8250021E0CD
:105660001CACFF1FC020074070E3000028ACFF1FE8
:1056700050ABFF1F24ACFF1F2109000301000400F1
:10568000B9ABFF1FC8004000982007400080FF1FF3
:10569000FCABFF1F64ABFF1FA8ABFF1F3F4B53F8D2
:1056A000253058603D4B43F825003D4B33F815102D
:1056B00032F8082C0A4423F8152000F0D1F860B124
:1056C00000F10803C8F8043018F0080F354B364ACB
:1056D00008BF134646F837300FE0002346F837304E
:1056E000324B1A7801321A7007E018F0080F2D4B70
:1056F0002D4A08BF134646F837300823237002E5C9
:1057000015F0010F22D02A4902230B700022294BE9
:105710001A70294B24481860284C5C60986028480F
:10572000D8601A619A610D20264B1870FF23264815
:1057300003700838037018300270244A13709F22D7
:10574000234B1A7001230B70BDE8F88F15F0800F02
:1057500005D00D221B4B1A708022403B1A7015F0A9
:10576000020F06D0184B1A78D2B21A700222083BE8
:105770001A7015F0100F0ED01022164B1A70BDE8DB
:10578000F88F00200146FFF7D1FBB1E62846002143
:10579000FFF7CCFBACE6BDE8F88F00BF54ABFF1FB2
:1057A0004CAEFF1FC80040008800400026ACFF1F21
:1057B00094200740B8ABFF1F0080FF1F68ABFF1F9E
:1057C000BCABFF1FC0200740882007408C2007404B
:1057D000842007408020074008B501F019FE00230F
:1057E0001B491A465A50C81842600833882BF9D111
:1057F000184B1A6842F480221A60154BC3F3072134
:10580000154A1170C3F30741143211701B0E043294
:105810001370FF23343A137008321370783A137000
:1058200001238432137000216C3211707C3A1370A2
:1058300070220A4B1A704FF40072A3F241331A60BF
:10584000102203F1C04303F5C8231A7008BD00BF3E
:105850000080FF1F348004409C20074049E400E0A2
:1058600072B60D4B1A68B2FA82F30F2B02D962B6E8
:10587000002070474FF00041D94022EA010206495A
:105880000A6062B6054903EBC303DB00C8180022B7
:10589000CA504260704700BFB898FF1F0094FF1FB6
:1058A00008B50F4BC31A0F4AA2FB03131B090F2B9A
:1058B00014D80D4A12783AB10C4A127812F0FF0F40
:1058C00002D0FFF78BFB08BD72B6094A4FF00041CA
:1058D00021FA03F311681943116062B608BD00BFD5
:1058E0000094FF1F398EE33826ACFF1F30ACFF1F3A
:1058F000B898FF1F10B504460A4B1B783C2B08D103
:10590000094B1B6863B109483C21002298470023DA
:1059100001E03B2B04D8591C024A1170034AD454AD
:1059200010BD00BF55AEFF1F5CACFF1F5CAEFF1F7C
:105930002DE9F04107460122234B1A70234B1B68C7
:105940002BBB234B1B7813F0FF0F3AD045F62154A5
:10595000DFF878801F4D1E4E0320FFF729FB052836
:1059600004D8FFF77DFFC8F8000080B9013C01D0E2
:105970002B7823B10122174B1A70BDE8F08100F09B
:10598000A9FF337813F0FF0FE6D1BDE8F0810022C4
:10599000104B1A700D4B19684B885A1C01EB83038E
:1059A0009F600F2A01D84A8008E040230B80032023
:1059B000FFF758FBFFF754FF044B18600022024B1F
:1059C0001A70BDE8F08100BF4CACFF1F54ACFF1F44
:1059D00030ACFF1F58ACFF1F08B5094B1B786BB9E3
:1059E000084B196851B14B8843B19B000B800320D1
:1059F000FFF738FBFFF734FF024B186008BD00BF0C
:105A00004CACFF1F54ACFF1FF8B50646974B1B6804
:105A1000ABB9974B1B7813F0FF0F00F012810420F5
:105A2000FFF7A8FA914B1860002800F00C8103885A
:105A30002BB9FFF735FF00208C4B1860F8BD8B4B5E
:105A400018684288910800EB81018D680432018852
:105A50008A4201D2428006E0FFF722FF0420FFF7CE
:105A600089FA824B186005F00F042B0A03F00F002F
:105A7000471CA4F10802062A00F2928016B1BE4229
:105A800040F0E380C5F30333082C0ED1082B3BD143
:105A90000022784B1A70784B1B68002B76D0384662
:105AA000C5F307412A0E984770E0092C1BD1092B3A
:105AB0003BD12A0E0BD001216E4B19706F4B1B6826
:105AC000002B63D03846C5F3074198475EE00022BB
:105AD000684B1A70684B1B68002B57D03846C5F3CB
